


ARM Macro Assembler    Page 1 


    1 00000000         ;/**
    2 00000000         ;*******************************************************
                       ********************************************************
                       ********
    3 00000000         ;* Copyright (c) 2020, China Mobile Communications Group
                        Co.,Ltd.
    4 00000000         ;*
    5 00000000         ;* Licensed under the Apache License, Version 2.0 (the "
                       License"); you may not use this file except in complianc
                       e with 
    6 00000000         ;* the License. You may obtain a copy of the License at
    7 00000000         ;*
    8 00000000         ;*     http://www.apache.org/licenses/LICENSE-2.0
    9 00000000         ;*
   10 00000000         ;* Unless required by applicable law or agreed to in wri
                       ting, software distributed under the License is distribu
                       ted on 
   11 00000000         ;* an "AS IS" BASIS, WITHOUT WARRANTIES OR CONDITIONS OF
                        ANY KIND, either express or implied. See the License fo
                       r the 
   12 00000000         ;* specific language governing permissions and limitatio
                       ns under the License.
   13 00000000         ;*
   14 00000000         ;* @file        arch_exc_rvds_secure.S
   15 00000000         ;*
   16 00000000         ;* @brief       This file provides exception handlers re
                       lated to the ARM-v8M architecture, and the compiler uses
                        armcc.
   17 00000000         ;*
   18 00000000         ;* @revision
   19 00000000         ;* Date         Author          Notes
   20 00000000         ;* 2021-02-25   OneOS Team      First version.
   21 00000000         ;*******************************************************
                       ********************************************************
                       ********
   22 00000000         ;*/
   23 00000000         
   24 00000000                 AREA             |.text|, CODE, READONLY, ALIGN=
2
   25 00000000                 THUMB
   26 00000000                 REQUIRE8
   27 00000000                 PRESERVE8
   28 00000000         
   29 00000000                 IMPORT           arch_fault_exception_secure
   30 00000000                 IMPORT           pHardFaultCallback
   31 00000000         
   32 00000000                 EXPORT           HardFault_Handler
   33 00000000         
   34 00000000         ;/**
   35 00000000         ; ******************************************************
                       ********************************************************
                       *********
   36 00000000         ; * @brief           HardFault interrupt handler.
   37 00000000         ; *
   38 00000000         ; * @param           None.
   39 00000000         ; *
   40 00000000         ; * @return          None.
   41 00000000         ; ******************************************************
                       ********************************************************



ARM Macro Assembler    Page 2 


                       *********
   42 00000000         ; */
   43 00000000         HardFault_Handler
                               PROC
   44 00000000         ; /* Get current context */
   45 00000000         
   46 00000000 F01E 0F40       TST              LR, #0x40   ; /* Bit[6] of EXC_
                                                            RETURN is 1: trustz
                                                            one stack was used 
                                                            0: non-trustzone st
                                                            ack was used to sto
                                                            re stack frame */
   47 00000004 D019            BEQ              no_secure_call ; /* When the fl
                                                            ag bit is 0, it mea
                                                            ns EQ. */
   48 00000006         
   49 00000006 F01E 0F04       TST              LR,  #0x04
   50 0000000A BF0C            ITE              EQ
   51 0000000C F3EF 8008       MRSEQ            R0,  MSP    ; /* EXC_RETURN[2] 
                                                            = 0, get fault cont
                                                            ext from handler. *
                                                            /
   52 00000010 F3EF 8009       MRSNE            R0,  PSP    ; /* EXC_RETURN[2] 
                                                            = 1, get fault cont
                                                            ext from task. */
   53 00000014         
   54 00000014         ; /* Save FPU registers */
   55 00000014                 IF               {FPU} != "SoftVFP"
   58                          ENDIF
   59 00000014         
   60 00000014 E920 4FF0       STMFD            R0!, {R4 - R11, LR} ; /* Push r
                                                            4 - r11, exc_return
                                                             register */
   61 00000018         
   62 00000018         ; /* After pushing the stack frame, modify the used stac
                       k top pointer. */
   63 00000018 F01E 0F08       TST              LR,  #0x08
   64 0000001C BF0C            ITE              EQ
   65 0000001E F380 8808       MSREQ            MSP, R0     ; /* EXC_RETURN[2] 
                                                            = 0, modify the use
                                                            d stack pointer MSP
                                                            . */
   66 00000022 F380 8809       MSRNE            PSP, R0     ; /* EXC_RETURN[2] 
                                                            = 1, modify the use
                                                            d stack pointer PSP
                                                            . */
   67 00000026         
   68 00000026 F3EF 8108       MRS              R1,  MSP
   69 0000002A F3EF 8209       MRS              R2,  PSP
   70 0000002E         
   71 0000002E B500            PUSH             {LR}
   72 00000030 F7FF FFFE       BL               arch_fault_exception_secure
   73 00000034 F85D EB04       POP              {LR}
   74 00000038 4770            BX               LR
   75 0000003A         
   76 0000003A         no_secure_call
   77 0000003A F01E 0F08       TST              LR,  #0x08
   78 0000003E BF0C            ITE              EQ
   79 00000040 F3EF 8088       MRSEQ            R0,  MSP_NS ; /* EXC_RETURN[3] 



ARM Macro Assembler    Page 3 


                                                            = 0, get fault cont
                                                            ext from handler. *
                                                            /
   80 00000044 F3EF 8089       MRSNE            R0,  PSP_NS ; /* EXC_RETURN[3] 
                                                            = 1, get fault cont
                                                            ext from task. */
   81 00000048         
   82 00000048         ; /* Save FPU registers */
   83 00000048                 IF               {FPU} != "SoftVFP"
   86                          ENDIF
   87 00000048         
   88 00000048 E920 0FF0       STMFD            R0!, {R4 - R11} ; /* Push r4 - 
                                                            r11 register */
   89 0000004C         
   90 0000004C         ; /* Push g_arch_tz_context_memory_id lr psplim control 
                       to stack */
   91 0000004C F04F 0100       MOV              R1,  #0     ; /* We don't care 
                                                            about g_arch_tz_con
                                                            text_memory_id, pus
                                                            h 0 to the stack. *
                                                            / 
   92 00000050 F3EF 828B       MRS              R2,  PSPLIM_NS ; /* R2 = PSPLIM
                                                            _NS */
   93 00000054 E920 4006       STMFD            R0!, {R1-R2, LR} ; /* Push to t
                                                            ask stack */
   94 00000058         
   95 00000058         ; /* After pushing the stack frame, modify the used stac
                       k top pointer. */
   96 00000058 F01E 0F08       TST              LR,  #0x08
   97 0000005C BF0C            ITE              EQ
   98 0000005E F380 8888       MSREQ            MSP_NS,  R0 ; /* EXC_RETURN[3] 
                                                            = 0, modify the use
                                                            d stack pointer MSP
                                                            . */
   99 00000062 F380 8889       MSRNE            PSP_NS,  R0 ; /* EXC_RETURN[3] 
                                                            = 1, modify the use
                                                            d stack pointer PSP
                                                            . */
  100 00000066         
  101 00000066 F3EF 8188       MRS              R1,  MSP_NS
  102 0000006A F3EF 8289       MRS              R2,  PSP_NS
  103 0000006E         
  104 0000006E B500            PUSH             {LR}
  105 00000070 4B02            LDR              R3,  =pHardFaultCallback ; /* R
                                                            3 = &pHardFaultCall
                                                            back */
  106 00000072 681B            LDR              R3,  [R3,#0] ; /* R3 = pHardFau
                                                            ltCallback */
  107 00000074 479C            BLXNS            R3
  108 00000076 F85D EB04       POP              {LR}
  109 0000007A         
  110 0000007A 4770            BX               LR
  111 0000007C                 ENDP
  112 0000007C         
  113 0000007C         
  114 0000007C                 ALIGN            4
  115 0000007C                 END
              00000000 
Command Line: --debug --xref --diag_suppress=9931 --cpu=Cortex-M33 --fpu=SoftVF



ARM Macro Assembler    Page 4 


P --depend=.\build\stm32l562e-dk_s\exe\arch_exc_rvds_secure.d -o.\build\stm32l5
62e-dk_s\exe\arch_exc_rvds_secure.o -I.\RTE\_STM32L562E-DK_TFM_Secure -IC:\Keil
_v5\Arm\Packs\ARM\CMSIS\5.7.0\CMSIS\Core\Include -IC:\Keil_v5\Arm\Packs\Keil\ST
M32L5xx_DFP\1.2.0\Drivers\CMSIS\Device\ST\STM32L5xx\Include --predefine="__UVIS
ION_VERSION SETA 532" --predefine="_RTE_ SETA 1" --predefine="STM32L562xx SETA 
1" --predefine="_RTE_ SETA 1" --list=arch_exc_rvds_secure.lst ..\..\..\..\arch\
arm\armv8m\trustzone\rvds\arch_exc_rvds_secure.S



ARM Macro Assembler    Page 1 Alphabetic symbol ordering
Relocatable symbols

.text 00000000

Symbol: .text
   Definitions
      At line 24 in file ..\..\..\..\arch\arm\armv8m\trustzone\rvds\arch_exc_rv
ds_secure.S
   Uses
      None
Comment: .text unused
HardFault_Handler 00000000

Symbol: HardFault_Handler
   Definitions
      At line 43 in file ..\..\..\..\arch\arm\armv8m\trustzone\rvds\arch_exc_rv
ds_secure.S
   Uses
      At line 32 in file ..\..\..\..\arch\arm\armv8m\trustzone\rvds\arch_exc_rv
ds_secure.S
Comment: HardFault_Handler used once
no_secure_call 0000003A

Symbol: no_secure_call
   Definitions
      At line 76 in file ..\..\..\..\arch\arm\armv8m\trustzone\rvds\arch_exc_rv
ds_secure.S
   Uses
      At line 47 in file ..\..\..\..\arch\arm\armv8m\trustzone\rvds\arch_exc_rv
ds_secure.S
Comment: no_secure_call used once
3 symbols



ARM Macro Assembler    Page 1 Alphabetic symbol ordering
External symbols

arch_fault_exception_secure 00000000

Symbol: arch_fault_exception_secure
   Definitions
      At line 29 in file ..\..\..\..\arch\arm\armv8m\trustzone\rvds\arch_exc_rv
ds_secure.S
   Uses
      At line 72 in file ..\..\..\..\arch\arm\armv8m\trustzone\rvds\arch_exc_rv
ds_secure.S
Comment: arch_fault_exception_secure used once
pHardFaultCallback 00000000

Symbol: pHardFaultCallback
   Definitions
      At line 30 in file ..\..\..\..\arch\arm\armv8m\trustzone\rvds\arch_exc_rv
ds_secure.S
   Uses
      At line 105 in file ..\..\..\..\arch\arm\armv8m\trustzone\rvds\arch_exc_r
vds_secure.S
Comment: pHardFaultCallback used once
2 symbols
340 symbols in table
